{
    "abi": [
        {
            "type": "constructor",
            "inputs": [
                {
                    "name": "initialSupply",
                    "type": "uint256",
                    "internalType": "uint256"
                },
                {
                    "name": "_companyAddress",
                    "type": "address",
                    "internalType": "address"
                }
            ],
            "stateMutability": "nonpayable"
        },
        {
            "type": "function",
            "name": "allowance",
            "inputs": [
                {
                    "name": "owner",
                    "type": "address",
                    "internalType": "address"
                },
                {
                    "name": "spender",
                    "type": "address",
                    "internalType": "address"
                }
            ],
            "outputs": [
                {
                    "name": "",
                    "type": "uint256",
                    "internalType": "uint256"
                }
            ],
            "stateMutability": "view"
        },
        {
            "type": "function",
            "name": "approve",
            "inputs": [
                {
                    "name": "spender",
                    "type": "address",
                    "internalType": "address"
                },
                {
                    "name": "value",
                    "type": "uint256",
                    "internalType": "uint256"
                }
            ],
            "outputs": [
                {
                    "name": "",
                    "type": "bool",
                    "internalType": "bool"
                }
            ],
            "stateMutability": "nonpayable"
        },
        {
            "type": "function",
            "name": "balanceOf",
            "inputs": [
                {
                    "name": "account",
                    "type": "address",
                    "internalType": "address"
                }
            ],
            "outputs": [
                {
                    "name": "",
                    "type": "uint256",
                    "internalType": "uint256"
                }
            ],
            "stateMutability": "view"
        },
        {
            "type": "function",
            "name": "companyAddress",
            "inputs": [],
            "outputs": [
                {
                    "name": "",
                    "type": "address",
                    "internalType": "address"
                }
            ],
            "stateMutability": "view"
        },
        {
            "type": "function",
            "name": "contractReserve",
            "inputs": [],
            "outputs": [
                {
                    "name": "",
                    "type": "uint256",
                    "internalType": "uint256"
                }
            ],
            "stateMutability": "view"
        },
        {
            "type": "function",
            "name": "decimals",
            "inputs": [],
            "outputs": [
                {
                    "name": "",
                    "type": "uint8",
                    "internalType": "uint8"
                }
            ],
            "stateMutability": "view"
        },
        {
            "type": "function",
            "name": "feePercent",
            "inputs": [],
            "outputs": [
                {
                    "name": "",
                    "type": "uint256",
                    "internalType": "uint256"
                }
            ],
            "stateMutability": "view"
        },
        {
            "type": "function",
            "name": "name",
            "inputs": [],
            "outputs": [
                {
                    "name": "",
                    "type": "string",
                    "internalType": "string"
                }
            ],
            "stateMutability": "view"
        },
        {
            "type": "function",
            "name": "owner",
            "inputs": [],
            "outputs": [
                {
                    "name": "",
                    "type": "address",
                    "internalType": "address"
                }
            ],
            "stateMutability": "view"
        },
        {
            "type": "function",
            "name": "renounceOwnership",
            "inputs": [],
            "outputs": [],
            "stateMutability": "nonpayable"
        },
        {
            "type": "function",
            "name": "sendBackToContract",
            "inputs": [
                {
                    "name": "amount",
                    "type": "uint256",
                    "internalType": "uint256"
                }
            ],
            "outputs": [],
            "stateMutability": "nonpayable"
        },
        {
            "type": "function",
            "name": "sendTokens",
            "inputs": [
                {
                    "name": "to",
                    "type": "address",
                    "internalType": "address"
                },
                {
                    "name": "amount",
                    "type": "uint256",
                    "internalType": "uint256"
                }
            ],
            "outputs": [],
            "stateMutability": "nonpayable"
        },
        {
            "type": "function",
            "name": "setCompanyAddress",
            "inputs": [
                {
                    "name": "_companyAddress",
                    "type": "address",
                    "internalType": "address"
                }
            ],
            "outputs": [],
            "stateMutability": "nonpayable"
        },
        {
            "type": "function",
            "name": "setFeePercent",
            "inputs": [
                {
                    "name": "_feePercent",
                    "type": "uint256",
                    "internalType": "uint256"
                }
            ],
            "outputs": [],
            "stateMutability": "nonpayable"
        },
        {
            "type": "function",
            "name": "symbol",
            "inputs": [],
            "outputs": [
                {
                    "name": "",
                    "type": "string",
                    "internalType": "string"
                }
            ],
            "stateMutability": "view"
        },
        {
            "type": "function",
            "name": "totalSupply",
            "inputs": [],
            "outputs": [
                {
                    "name": "",
                    "type": "uint256",
                    "internalType": "uint256"
                }
            ],
            "stateMutability": "view"
        },
        {
            "type": "function",
            "name": "transfer",
            "inputs": [
                {
                    "name": "to",
                    "type": "address",
                    "internalType": "address"
                },
                {
                    "name": "value",
                    "type": "uint256",
                    "internalType": "uint256"
                }
            ],
            "outputs": [
                {
                    "name": "",
                    "type": "bool",
                    "internalType": "bool"
                }
            ],
            "stateMutability": "nonpayable"
        },
        {
            "type": "function",
            "name": "transferFrom",
            "inputs": [
                {
                    "name": "from",
                    "type": "address",
                    "internalType": "address"
                },
                {
                    "name": "to",
                    "type": "address",
                    "internalType": "address"
                },
                {
                    "name": "value",
                    "type": "uint256",
                    "internalType": "uint256"
                }
            ],
            "outputs": [
                {
                    "name": "",
                    "type": "bool",
                    "internalType": "bool"
                }
            ],
            "stateMutability": "nonpayable"
        },
        {
            "type": "function",
            "name": "transferOwnership",
            "inputs": [
                {
                    "name": "newOwner",
                    "type": "address",
                    "internalType": "address"
                }
            ],
            "outputs": [],
            "stateMutability": "nonpayable"
        },
        {
            "type": "event",
            "name": "Approval",
            "inputs": [
                {
                    "name": "owner",
                    "type": "address",
                    "indexed": true,
                    "internalType": "address"
                },
                {
                    "name": "spender",
                    "type": "address",
                    "indexed": true,
                    "internalType": "address"
                },
                {
                    "name": "value",
                    "type": "uint256",
                    "indexed": false,
                    "internalType": "uint256"
                }
            ],
            "anonymous": false
        },
        {
            "type": "event",
            "name": "OffRamp",
            "inputs": [
                {
                    "name": "from",
                    "type": "address",
                    "indexed": true,
                    "internalType": "address"
                },
                {
                    "name": "amount",
                    "type": "uint256",
                    "indexed": false,
                    "internalType": "uint256"
                }
            ],
            "anonymous": false
        },
        {
            "type": "event",
            "name": "OwnershipTransferred",
            "inputs": [
                {
                    "name": "previousOwner",
                    "type": "address",
                    "indexed": true,
                    "internalType": "address"
                },
                {
                    "name": "newOwner",
                    "type": "address",
                    "indexed": true,
                    "internalType": "address"
                }
            ],
            "anonymous": false
        },
        {
            "type": "event",
            "name": "Transfer",
            "inputs": [
                {
                    "name": "from",
                    "type": "address",
                    "indexed": true,
                    "internalType": "address"
                },
                {
                    "name": "to",
                    "type": "address",
                    "indexed": true,
                    "internalType": "address"
                },
                {
                    "name": "value",
                    "type": "uint256",
                    "indexed": false,
                    "internalType": "uint256"
                }
            ],
            "anonymous": false
        },
        {
            "type": "error",
            "name": "ERC20InsufficientAllowance",
            "inputs": [
                {
                    "name": "spender",
                    "type": "address",
                    "internalType": "address"
                },
                {
                    "name": "allowance",
                    "type": "uint256",
                    "internalType": "uint256"
                },
                {
                    "name": "needed",
                    "type": "uint256",
                    "internalType": "uint256"
                }
            ]
        },
        {
            "type": "error",
            "name": "ERC20InsufficientBalance",
            "inputs": [
                {
                    "name": "sender",
                    "type": "address",
                    "internalType": "address"
                },
                {
                    "name": "balance",
                    "type": "uint256",
                    "internalType": "uint256"
                },
                {
                    "name": "needed",
                    "type": "uint256",
                    "internalType": "uint256"
                }
            ]
        },
        {
            "type": "error",
            "name": "ERC20InvalidApprover",
            "inputs": [
                {
                    "name": "approver",
                    "type": "address",
                    "internalType": "address"
                }
            ]
        },
        {
            "type": "error",
            "name": "ERC20InvalidReceiver",
            "inputs": [
                {
                    "name": "receiver",
                    "type": "address",
                    "internalType": "address"
                }
            ]
        },
        {
            "type": "error",
            "name": "ERC20InvalidSender",
            "inputs": [
                {
                    "name": "sender",
                    "type": "address",
                    "internalType": "address"
                }
            ]
        },
        {
            "type": "error",
            "name": "ERC20InvalidSpender",
            "inputs": [
                {
                    "name": "spender",
                    "type": "address",
                    "internalType": "address"
                }
            ]
        },
        {
            "type": "error",
            "name": "OwnableInvalidOwner",
            "inputs": [
                {
                    "name": "owner",
                    "type": "address",
                    "internalType": "address"
                }
            ]
        },
        {
            "type": "error",
            "name": "OwnableUnauthorizedAccount",
            "inputs": [
                {
                    "name": "account",
                    "type": "address",
                    "internalType": "address"
                }
            ]
        }
    ],
    "bytecode": {
        "object": "0x608060405260a0600755348015610014575f5ffd5b5060405161244038038061244083398181016040528101906100369190610628565b336040518060400160405280601181526020017f4f6e52616d7020537461626c65636f696e0000000000000000000000000000008152506040518060400160405280600381526020017f4f5253000000000000000000000000000000000000000000000000000000000081525081600390816100b2919061089a565b5080600490816100c2919061089a565b5050505f73ffffffffffffffffffffffffffffffffffffffff168173ffffffffffffffffffffffffffffffffffffffff1603610135575f6040517f1e4fbdf700000000000000000000000000000000000000000000000000000000815260040161012c9190610978565b60405180910390fd5b6101448161022e60201b60201c565b505f73ffffffffffffffffffffffffffffffffffffffff168173ffffffffffffffffffffffffffffffffffffffff16036101b3576040517f08c379a00000000000000000000000000000000000000000000000000000000081526004016101aa906109eb565b60405180910390fd5b8060065f6101000a81548173ffffffffffffffffffffffffffffffffffffffff021916908373ffffffffffffffffffffffffffffffffffffffff160217905550610227306102056102f160201b60201c565b600a6102119190610b71565b8461021c9190610bbb565b6102f960201b60201c565b5050610c8c565b5f60055f9054906101000a900473ffffffffffffffffffffffffffffffffffffffff1690508160055f6101000a81548173ffffffffffffffffffffffffffffffffffffffff021916908373ffffffffffffffffffffffffffffffffffffffff1602179055508173ffffffffffffffffffffffffffffffffffffffff168173ffffffffffffffffffffffffffffffffffffffff167f8be0079c531659141344cd1fd0a4f28419497f9722a3daafe3b4186f6b6457e060405160405180910390a35050565b5f6012905090565b5f73ffffffffffffffffffffffffffffffffffffffff168273ffffffffffffffffffffffffffffffffffffffff1603610369575f6040517fec442f050000000000000000000000000000000000000000000000000000000081526004016103609190610978565b60405180910390fd5b61037a5f838361037e60201b60201c565b5050565b5f73ffffffffffffffffffffffffffffffffffffffff168373ffffffffffffffffffffffffffffffffffffffff16036103ce578060025f8282546103c29190610bfc565b9250508190555061049c565b5f5f5f8573ffffffffffffffffffffffffffffffffffffffff1673ffffffffffffffffffffffffffffffffffffffff1681526020019081526020015f2054905081811015610457578381836040517fe450d38c00000000000000000000000000000000000000000000000000000000815260040161044e93929190610c3e565b60405180910390fd5b8181035f5f8673ffffffffffffffffffffffffffffffffffffffff1673ffffffffffffffffffffffffffffffffffffffff1681526020019081526020015f2081905550505b5f73ffffffffffffffffffffffffffffffffffffffff168273ffffffffffffffffffffffffffffffffffffffff16036104e3578060025f828254039250508190555061052d565b805f5f8473ffffffffffffffffffffffffffffffffffffffff1673ffffffffffffffffffffffffffffffffffffffff1681526020019081526020015f205f82825401925050819055505b8173ffffffffffffffffffffffffffffffffffffffff168373ffffffffffffffffffffffffffffffffffffffff167fddf252ad1be2c89b69c2b068fc378daa952ba7f163c4a11628f55a4df523b3ef8360405161058a9190610c73565b60405180910390a3505050565b5f5ffd5b5f819050919050565b6105ad8161059b565b81146105b7575f5ffd5b50565b5f815190506105c8816105a4565b92915050565b5f73ffffffffffffffffffffffffffffffffffffffff82169050919050565b5f6105f7826105ce565b9050919050565b610607816105ed565b8114610611575f5ffd5b50565b5f81519050610622816105fe565b92915050565b5f5f6040838503121561063e5761063d610597565b5b5f61064b858286016105ba565b925050602061065c85828601610614565b9150509250929050565b5f81519050919050565b7f4e487b71000000000000000000000000000000000000000000000000000000005f52604160045260245ffd5b7f4e487b71000000000000000000000000000000000000000000000000000000005f52602260045260245ffd5b5f60028204905060018216806106e157607f821691505b6020821081036106f4576106f361069d565b5b50919050565b5f819050815f5260205f209050919050565b5f6020601f8301049050919050565b5f82821b905092915050565b5f600883026107567fffffffffffffffffffffffffffffffffffffffffffffffffffffffffffffffff8261071b565b610760868361071b565b95508019841693508086168417925050509392505050565b5f819050919050565b5f61079b6107966107918461059b565b610778565b61059b565b9050919050565b5f819050919050565b6107b483610781565b6107c86107c0826107a2565b848454610727565b825550505050565b5f5f905090565b6107df6107d0565b6107ea8184846107ab565b505050565b5b8181101561080d576108025f826107d7565b6001810190506107f0565b5050565b601f82111561085257610823816106fa565b61082c8461070c565b8101602085101561083b578190505b61084f6108478561070c565b8301826107ef565b50505b505050565b5f82821c905092915050565b5f6108725f1984600802610857565b1980831691505092915050565b5f61088a8383610863565b9150826002028217905092915050565b6108a382610666565b67ffffffffffffffff8111156108bc576108bb610670565b5b6108c682546106ca565b6108d1828285610811565b5f60209050601f831160018114610902575f84156108f0578287015190505b6108fa858261087f565b865550610961565b601f198416610910866106fa565b5f5b8281101561093757848901518255600182019150602085019450602081019050610912565b868310156109545784890151610950601f891682610863565b8355505b6001600288020188555050505b505050505050565b610972816105ed565b82525050565b5f60208201905061098b5f830184610969565b92915050565b5f82825260208201905092915050565b7f496e76616c696420636f6d70616e7920616464726573730000000000000000005f82015250565b5f6109d5601783610991565b91506109e0826109a1565b602082019050919050565b5f6020820190508181035f830152610a02816109c9565b9050919050565b7f4e487b71000000000000000000000000000000000000000000000000000000005f52601160045260245ffd5b5f8160011c9050919050565b5f5f8291508390505b6001851115610a8b57808604811115610a6757610a66610a09565b5b6001851615610a765780820291505b8081029050610a8485610a36565b9450610a4b565b94509492505050565b5f82610aa35760019050610b5e565b81610ab0575f9050610b5e565b8160018114610ac65760028114610ad057610aff565b6001915050610b5e565b60ff841115610ae257610ae1610a09565b5b8360020a915084821115610af957610af8610a09565b5b50610b5e565b5060208310610133831016604e8410600b8410161715610b345782820a905083811115610b2f57610b2e610a09565b5b610b5e565b610b418484846001610a42565b92509050818404811115610b5857610b57610a09565b5b81810290505b9392505050565b5f60ff82169050919050565b5f610b7b8261059b565b9150610b8683610b65565b9250610bb37fffffffffffffffffffffffffffffffffffffffffffffffffffffffffffffffff8484610a94565b905092915050565b5f610bc58261059b565b9150610bd08361059b565b9250828202610bde8161059b565b91508282048414831517610bf557610bf4610a09565b5b5092915050565b5f610c068261059b565b9150610c118361059b565b9250828201905080821115610c2957610c28610a09565b5b92915050565b610c388161059b565b82525050565b5f606082019050610c515f830186610969565b610c5e6020830185610c2f565b610c6b6040830184610c2f565b949350505050565b5f602082019050610c865f830184610c2f565b92915050565b6117a780610c995f395ff3fe608060405234801561000f575f5ffd5b506004361061011f575f3560e01c806370a08231116100ab57806395d89b411161006f57806395d89b41146102e1578063a9059cbb146102ff578063dd62ed3e1461032f578063f2fde38b1461035f578063fd4263021461037b5761011f565b806370a082311461024f578063715018a61461027f5780637ce3489b146102895780637fd6f15c146102a55780638da5cb5b146102c35761011f565b806323b872dd116100f257806323b872dd146101ab578063313ce567146101db578063371320ce146101f95780634f63a7721461021557806353e1ead9146102315761011f565b806305ab421d1461012357806306fdde031461013f578063095ea7b31461015d57806318160ddd1461018d575b5f5ffd5b61013d6004803603810190610138919061113d565b610399565b005b6101476104c4565b60405161015491906111eb565b60405180910390f35b6101776004803603810190610172919061113d565b610554565b6040516101849190611225565b60405180910390f35b610195610576565b6040516101a2919061124d565b60405180910390f35b6101c560048036038101906101c09190611266565b61057f565b6040516101d29190611225565b60405180910390f35b6101e36105ad565b6040516101f091906112d1565b60405180910390f35b610213600480360381019061020e91906112ea565b6105b5565b005b61022f600480360381019061022a9190611315565b61065c565b005b610239610715565b604051610246919061134f565b60405180910390f35b61026960048036038101906102649190611315565b61073a565b604051610276919061124d565b60405180910390f35b61028761077f565b005b6102a3600480360381019061029e91906112ea565b610792565b005b6102ad6107e9565b6040516102ba919061124d565b60405180910390f35b6102cb6107ef565b6040516102d8919061134f565b60405180910390f35b6102e9610817565b6040516102f691906111eb565b60405180910390f35b6103196004803603810190610314919061113d565b6108a7565b6040516103269190611225565b60405180910390f35b61034960048036038101906103449190611368565b6108c9565b604051610356919061124d565b60405180910390f35b61037960048036038101906103749190611315565b61094b565b005b6103836109cf565b604051610390919061124d565b60405180910390f35b6103a16109de565b5f73ffffffffffffffffffffffffffffffffffffffff168273ffffffffffffffffffffffffffffffffffffffff160361040f576040517f08c379a0000000000000000000000000000000000000000000000000000000008152600401610406906113f0565b60405180910390fd5b806104193061073a565b101561045a576040517f08c379a000000000000000000000000000000000000000000000000000000000815260040161045190611458565b60405180910390fd5b5f6127106007548361046c91906114a3565b6104769190611511565b90505f81836104859190611541565b9050610492308583610a65565b6104be3060065f9054906101000a900473ffffffffffffffffffffffffffffffffffffffff1684610a65565b50505050565b6060600380546104d3906115a1565b80601f01602080910402602001604051908101604052809291908181526020018280546104ff906115a1565b801561054a5780601f106105215761010080835404028352916020019161054a565b820191905f5260205f20905b81548152906001019060200180831161052d57829003601f168201915b5050505050905090565b5f5f61055e610b55565b905061056b818585610b5c565b600191505092915050565b5f600254905090565b5f5f610589610b55565b9050610596858285610b6e565b6105a1858585610a65565b60019150509392505050565b5f6012905090565b806105bf3361073a565b1015610600576040517f08c379a00000000000000000000000000000000000000000000000000000000081526004016105f79061161b565b60405180910390fd5b61060b333083610a65565b3373ffffffffffffffffffffffffffffffffffffffff167fb51a02b6da5e6417ddafd9c70128b98034bb20358f9ba7d9a66615c7f34559ed82604051610651919061124d565b60405180910390a250565b6106646109de565b5f73ffffffffffffffffffffffffffffffffffffffff168173ffffffffffffffffffffffffffffffffffffffff16036106d2576040517f08c379a00000000000000000000000000000000000000000000000000000000081526004016106c990611683565b60405180910390fd5b8060065f6101000a81548173ffffffffffffffffffffffffffffffffffffffff021916908373ffffffffffffffffffffffffffffffffffffffff16021790555050565b60065f9054906101000a900473ffffffffffffffffffffffffffffffffffffffff1681565b5f5f5f8373ffffffffffffffffffffffffffffffffffffffff1673ffffffffffffffffffffffffffffffffffffffff1681526020019081526020015f20549050919050565b6107876109de565b6107905f610c01565b565b61079a6109de565b6103e88111156107df576040517f08c379a00000000000000000000000000000000000000000000000000000000081526004016107d6906116eb565b60405180910390fd5b8060078190555050565b60075481565b5f60055f9054906101000a900473ffffffffffffffffffffffffffffffffffffffff16905090565b606060048054610826906115a1565b80601f0160208091040260200160405190810160405280929190818152602001828054610852906115a1565b801561089d5780601f106108745761010080835404028352916020019161089d565b820191905f5260205f20905b81548152906001019060200180831161088057829003601f168201915b5050505050905090565b5f5f6108b1610b55565b90506108be818585610a65565b600191505092915050565b5f60015f8473ffffffffffffffffffffffffffffffffffffffff1673ffffffffffffffffffffffffffffffffffffffff1681526020019081526020015f205f8373ffffffffffffffffffffffffffffffffffffffff1673ffffffffffffffffffffffffffffffffffffffff1681526020019081526020015f2054905092915050565b6109536109de565b5f73ffffffffffffffffffffffffffffffffffffffff168173ffffffffffffffffffffffffffffffffffffffff16036109c3575f6040517f1e4fbdf70000000000000000000000000000000000000000000000000000000081526004016109ba919061134f565b60405180910390fd5b6109cc81610c01565b50565b5f6109d93061073a565b905090565b6109e6610b55565b73ffffffffffffffffffffffffffffffffffffffff16610a046107ef565b73ffffffffffffffffffffffffffffffffffffffff1614610a6357610a27610b55565b6040517f118cdaa7000000000000000000000000000000000000000000000000000000008152600401610a5a919061134f565b60405180910390fd5b565b5f73ffffffffffffffffffffffffffffffffffffffff168373ffffffffffffffffffffffffffffffffffffffff1603610ad5575f6040517f96c6fd1e000000000000000000000000000000000000000000000000000000008152600401610acc919061134f565b60405180910390fd5b5f73ffffffffffffffffffffffffffffffffffffffff168273ffffffffffffffffffffffffffffffffffffffff1603610b45575f6040517fec442f05000000000000000000000000000000000000000000000000000000008152600401610b3c919061134f565b60405180910390fd5b610b50838383610cc4565b505050565b5f33905090565b610b698383836001610edd565b505050565b5f610b7984846108c9565b90507fffffffffffffffffffffffffffffffffffffffffffffffffffffffffffffffff811015610bfb5781811015610bec578281836040517ffb8f41b2000000000000000000000000000000000000000000000000000000008152600401610be393929190611709565b60405180910390fd5b610bfa84848484035f610edd565b5b50505050565b5f60055f9054906101000a900473ffffffffffffffffffffffffffffffffffffffff1690508160055f6101000a81548173ffffffffffffffffffffffffffffffffffffffff021916908373ffffffffffffffffffffffffffffffffffffffff1602179055508173ffffffffffffffffffffffffffffffffffffffff168173ffffffffffffffffffffffffffffffffffffffff167f8be0079c531659141344cd1fd0a4f28419497f9722a3daafe3b4186f6b6457e060405160405180910390a35050565b5f73ffffffffffffffffffffffffffffffffffffffff168373ffffffffffffffffffffffffffffffffffffffff1603610d14578060025f828254610d08919061173e565b92505081905550610de2565b5f5f5f8573ffffffffffffffffffffffffffffffffffffffff1673ffffffffffffffffffffffffffffffffffffffff1681526020019081526020015f2054905081811015610d9d578381836040517fe450d38c000000000000000000000000000000000000000000000000000000008152600401610d9493929190611709565b60405180910390fd5b8181035f5f8673ffffffffffffffffffffffffffffffffffffffff1673ffffffffffffffffffffffffffffffffffffffff1681526020019081526020015f2081905550505b5f73ffffffffffffffffffffffffffffffffffffffff168273ffffffffffffffffffffffffffffffffffffffff1603610e29578060025f8282540392505081905550610e73565b805f5f8473ffffffffffffffffffffffffffffffffffffffff1673ffffffffffffffffffffffffffffffffffffffff1681526020019081526020015f205f82825401925050819055505b8173ffffffffffffffffffffffffffffffffffffffff168373ffffffffffffffffffffffffffffffffffffffff167fddf252ad1be2c89b69c2b068fc378daa952ba7f163c4a11628f55a4df523b3ef83604051610ed0919061124d565b60405180910390a3505050565b5f73ffffffffffffffffffffffffffffffffffffffff168473ffffffffffffffffffffffffffffffffffffffff1603610f4d575f6040517fe602df05000000000000000000000000000000000000000000000000000000008152600401610f44919061134f565b60405180910390fd5b5f73ffffffffffffffffffffffffffffffffffffffff168373ffffffffffffffffffffffffffffffffffffffff1603610fbd575f6040517f94280d62000000000000000000000000000000000000000000000000000000008152600401610fb4919061134f565b60405180910390fd5b8160015f8673ffffffffffffffffffffffffffffffffffffffff1673ffffffffffffffffffffffffffffffffffffffff1681526020019081526020015f205f8573ffffffffffffffffffffffffffffffffffffffff1673ffffffffffffffffffffffffffffffffffffffff1681526020019081526020015f208190555080156110a6578273ffffffffffffffffffffffffffffffffffffffff168473ffffffffffffffffffffffffffffffffffffffff167f8c5be1e5ebec7d5bd14f71427d1e84f3dd0314c0f7b2291e5b200ac8c7c3b9258460405161109d919061124d565b60405180910390a35b50505050565b5f5ffd5b5f73ffffffffffffffffffffffffffffffffffffffff82169050919050565b5f6110d9826110b0565b9050919050565b6110e9816110cf565b81146110f3575f5ffd5b50565b5f81359050611104816110e0565b92915050565b5f819050919050565b61111c8161110a565b8114611126575f5ffd5b50565b5f8135905061113781611113565b92915050565b5f5f60408385031215611153576111526110ac565b5b5f611160858286016110f6565b925050602061117185828601611129565b9150509250929050565b5f81519050919050565b5f82825260208201905092915050565b8281835e5f83830152505050565b5f601f19601f8301169050919050565b5f6111bd8261117b565b6111c78185611185565b93506111d7818560208601611195565b6111e0816111a3565b840191505092915050565b5f6020820190508181035f83015261120381846111b3565b905092915050565b5f8115159050919050565b61121f8161120b565b82525050565b5f6020820190506112385f830184611216565b92915050565b6112478161110a565b82525050565b5f6020820190506112605f83018461123e565b92915050565b5f5f5f6060848603121561127d5761127c6110ac565b5b5f61128a868287016110f6565b935050602061129b868287016110f6565b92505060406112ac86828701611129565b9150509250925092565b5f60ff82169050919050565b6112cb816112b6565b82525050565b5f6020820190506112e45f8301846112c2565b92915050565b5f602082840312156112ff576112fe6110ac565b5b5f61130c84828501611129565b91505092915050565b5f6020828403121561132a576113296110ac565b5b5f611337848285016110f6565b91505092915050565b611349816110cf565b82525050565b5f6020820190506113625f830184611340565b92915050565b5f5f6040838503121561137e5761137d6110ac565b5b5f61138b858286016110f6565b925050602061139c858286016110f6565b9150509250929050565b7f43616e6e6f742073656e6420746f207a65726f206164647265737300000000005f82015250565b5f6113da601b83611185565b91506113e5826113a6565b602082019050919050565b5f6020820190508181035f830152611407816113ce565b9050919050565b7f496e73756666696369656e7420636f6e747261637420726573657276650000005f82015250565b5f611442601d83611185565b915061144d8261140e565b602082019050919050565b5f6020820190508181035f83015261146f81611436565b9050919050565b7f4e487b71000000000000000000000000000000000000000000000000000000005f52601160045260245ffd5b5f6114ad8261110a565b91506114b88361110a565b92508282026114c68161110a565b915082820484148315176114dd576114dc611476565b5b5092915050565b7f4e487b71000000000000000000000000000000000000000000000000000000005f52601260045260245ffd5b5f61151b8261110a565b91506115268361110a565b925082611536576115356114e4565b5b828204905092915050565b5f61154b8261110a565b91506115568361110a565b925082820390508181111561156e5761156d611476565b5b92915050565b7f4e487b71000000000000000000000000000000000000000000000000000000005f52602260045260245ffd5b5f60028204905060018216806115b857607f821691505b6020821081036115cb576115ca611574565b5b50919050565b7f496e73756666696369656e742062616c616e63650000000000000000000000005f82015250565b5f611605601483611185565b9150611610826115d1565b602082019050919050565b5f6020820190508181035f830152611632816115f9565b9050919050565b7f496e76616c6964206164647265737300000000000000000000000000000000005f82015250565b5f61166d600f83611185565b915061167882611639565b602082019050919050565b5f6020820190508181035f83015261169a81611661565b9050919050565b7f46656520746f6f206869676800000000000000000000000000000000000000005f82015250565b5f6116d5600c83611185565b91506116e0826116a1565b602082019050919050565b5f6020820190508181035f830152611702816116c9565b9050919050565b5f60608201905061171c5f830186611340565b611729602083018561123e565b611736604083018461123e565b949350505050565b5f6117488261110a565b91506117538361110a565b925082820190508082111561176b5761176a611476565b5b9291505056fea26469706673582212201b5493d6dfddce1ac20a44620c0bd74e31d28819633bfa853b6e862035435e0464736f6c634300081c0033",
        "linkReferences": {}
    },
    "methodIdentifiers": {
        "allowance(address,address)": "dd62ed3e",
        "approve(address,uint256)": "095ea7b3",
        "balanceOf(address)": "70a08231",
        "companyAddress()": "53e1ead9",
        "contractReserve()": "fd426302",
        "decimals()": "313ce567",
        "feePercent()": "7fd6f15c",
        "name()": "06fdde03",
        "owner()": "8da5cb5b",
        "renounceOwnership()": "715018a6",
        "sendBackToContract(uint256)": "371320ce",
        "sendTokens(address,uint256)": "05ab421d",
        "setCompanyAddress(address)": "4f63a772",
        "setFeePercent(uint256)": "7ce3489b",
        "symbol()": "95d89b41",
        "totalSupply()": "18160ddd",
        "transfer(address,uint256)": "a9059cbb",
        "transferFrom(address,address,uint256)": "23b872dd",
        "transferOwnership(address)": "f2fde38b"
    },
    "id": 28
}